:100000000C9462000C948A000C948A000C948A0070
:100010000C948A000C948A000C948A000C948A0038
:100020000C948A000C948A000C948A000C948A0028
:100030000C948A000C948A000C948A000C948A0018
:100040000C9499020C948A000C948A000C948A00F7
:100050000C948A000C948A000C948A000C948A00F8
:100060000C948A000C948A000000000023002600F3
:10007000290000000000240027002A0000000000E2
:10008000250028002B0004040404040404040202D4
:100090000202020203030303030301020408102007
:1000A0004080010204081020010204081020000012
:1000B0000008000201000003040700000000000027
:1000C0000000AE0311241FBECFEFD8E0DEBFCDBFCE
:1000D00011E0A0E0B1E0EAEAF7E002C005900D927D
:1000E000A634B107D9F721E0A6E4B1E001C01D9222
:1000F000A736B207E1F710E0C2E6D0E004C02197CE
:10010000FE010E94CD03C136D107C9F70E94E30268
:100110000C94D3030C940000833081F028F48130D8
:1001200099F08230A9F008958730A9F08830C9F09D
:100130008430B1F4809180008F7D03C08091800075
:100140008F7780938000089584B58F7784BD08955C
:1001500084B58F7DFBCF8091B0008F778093B00006
:1001600008958091B0008F7DF9CF1F93CF93DF93D7
:10017000282F30E0F901E255FF4F8491F901E6564E
:10018000FF4FD491F901EA57FF4FC491CC23A9F056
:10019000162F81110E948C00EC2FF0E0EE0FFF1F54
:1001A000E458FF4FA591B4918FB7F894EC911111D9
:1001B00008C0D095DE23DC938FBFDF91CF911F91D4
:1001C0000895DE2BF8CFCF93DF9390E0FC01E65645
:1001D000FF4F24918A579F4FFC0184918823D1F0CF
:1001E00090E0880F991FFC01EE58FF4FA591B49144
:1001F000FC01E458FF4FC591D49161110EC09FB727
:10020000F8948C91E22FE0958E238C932881E22341
:10021000E8839FBFDF91CF9108958FB7F894EC9159
:10022000E22BEC938FBFF6CFAF92BF92CF92DF92CB
:10023000EF92FF920F931F93CF93DF936C017B019B
:100240008B01040F151FEB015E01AE18BF08C0172C
:10025000D10759F06991D601ED91FC910190F0819F
:10026000E02DC6010995892B79F7C501DF91CF9162
:100270001F910F91FF90EF90DF90CF90BF90AF90C4
:100280000895089590E080E00895FC010190002019
:10029000E9F73197AF01481B590BBC018FE491E09E
:1002A0000C941401CF93DF93EC0160E08E810E94E7
:1002B000B50061E08E810E94B50060E08E810E94F1
:1002C000B5008BE891E00197F1F7DF91CF910895A8
:1002D000CF92DF92EF92FF920F931F93CF93DF9312
:1002E0006C017C0187E0E80EF11CD0E0C0E0062F35
:1002F00010E0B8010C2E02C0759567950A94E2F7DC
:100300006170F70181917F010E94B5002196C43090
:10031000D10579F7C601DF91CF911F910F91FF9021
:10032000EF90DF90CF900C945201CF92DF92EF923A
:10033000FF920F931F93CF93DF93EC01F62E642F60
:100340008C810E94B5008D818F3F19F060E00E9482
:10035000B5000F2D10E08F8584FF25C06E0187E06A
:10036000C80ED11CF12CE12CB8010E2C02C07595E1
:1003700067950A94E2F76170F60181916F010E941E
:10038000B500FFEFEF1AFF0A88E0E816F10461F705
:10039000CE01DF91CF911F910F91FF90EF90DF90F1
:1003A000CF900C945201B80184E0759567958A95B9
:1003B000E1F7CE010E9468016F2DCE01DF91CF9150
:1003C0001F910F91FF90EF90DF90CF900C946801F8
:1003D00040E0682F8FE491E00C949501CF93DF9378
:1003E000623029F490915E01986090935E01609371
:1003F00062011092630190E490936401809365011F
:10040000805C8093660161E0809153010E94E3006B
:10041000809154018F3F19F061E00E94E30061E098
:10042000809155010E94E300CFE4D1E09E012F545A
:10043000314080915E0184FD0BC084E090E0219604
:100440002817390744F461E08E810E94E300EECF63
:1004500088E090E0F4CF8BE39DE00197F1F760E056
:10046000809153010E94B50060E0809155010E9487
:10047000B500809154018F3F19F060E00E94B500F3
:1004800080915E0184FD39C063E08FE491E00E94B9
:100490006801CBE4D6E4CE010197F1F763E08FE485
:1004A00091E00E9468012197F1F763E08FE491E009
:1004B0000E94680183E592E00197F1F762E08FE422
:1004C00091E00E94680180915E0180620E94E801D3
:1004D00084E080935F018CE00E94E80181E00E944B
:1004E000E8018BE39FE10197F1F782E080936001DF
:1004F00086E0DF91CF910C94E80180620E94E801D0
:100500008BE496E40197F1F780915E0180620E948E
:10051000E80183E592E00197F1F780915E01806246
:100520000E94E801D0CF41E00E94950181E090E077
:1005300008951F920F920FB60F9211242F933F939D
:100540008F939F93AF93BF9380914B0190914C01F8
:10055000A0914D01B0914E0130914A0123E0230F4B
:100560002D3758F50196A11DB11D20934A018093A6
:100570004B0190934C01A0934D01B0934E0180919B
:10058000460190914701A0914801B091490101961F
:10059000A11DB11D8093460190934701A09348018E
:1005A000B0934901BF91AF919F918F913F912F914E
:1005B0000F900FBE0F901F90189526E8230F0296FC
:1005C000A11DB11DD2CF789484B5826084BD84B55D
:1005D000816084BD85B5826085BD85B5816085BD3E
:1005E00080916E00816080936E00109281008091F6
:1005F000810082608093810080918100816080937E
:100600008100809180008160809380008091B100A2
:1006100084608093B1008091B00081608093B000CD
:1006200080917A00846080937A0080917A00826061
:1006300080937A0080917A00816080937A00809123
:100640007A00806880937A001092C10062E080E2B4
:100650000E94EE01E1E0809162018111E0E0E1950C
:10066000F0E0E15BFE4F848980680E94E8018CE045
:1006700091E00E94450161E081E00E94E30061E0B9
:1006800082E00E94E30061E086E00E94E30060E017
:1006900087E00E94E300C5EBD0E001EA10E09DE8AE
:1006A000E92E90E0F92E20E0C22E20E0D22EFE01AD
:1006B0008491F801A490F701B490BB2099F18111C5
:1006C0000E948C00EB2DF0E0EE0FFF1FE859FF4F6A
:1006D000A591B4918C91A82229F1E0916201E230B8
:1006E000F8F4E150F0E0E15BFE4F848980680E94FD
:1006F000E80189E191E00E94450161E081E00E940A
:10070000B50060E082E00E94B50061E086E00E94F2
:10071000B500C114D10409F4CACF0E940000C7CFAC
:10072000E1E0E0CFE0916201E230B0F4E150F0E0CE
:10073000E15BFE4F848980680E94E80181E391E0DB
:100740000E94450160E081E00E94B50061E082E026
:100750000E94B50060E0DACFE1E0E9CFEFE4F1E03C
:100760001382128284E091E09183808383E1848309
:100770008FEF858382E1868381E1878380E18087B3
:100780008FE081878EE08287138614861586168611
:10079000178661E080E10C94EE01EE0FFF1F0590DB
:0A07A000F491E02D0994F894FFCFC6
:1007AA000000000093021401420141014741535FD6
:1007BA004445544543544F520020202020414C4583
:1007CA00525420474153204C45414B414745202034
:1007DA000020204E6F726D616C5F436F6E646974A6
:0607EA00696F6E200000A3
:00000001FF
